:100000000C94C8000C94F0000C94F0000C94F000D8
:100010000C94F0000C94F0000C94F0000C94150873
:100020000C94F0000C94F0000C94F0000C94F00090
:100030000C94F0000C94F0000C94F0000C94F00080
:100040000C94940C0C94F0000C9495070C946F078E
:100050000C94F0000C94F0000C94F0000C94F00060
:100060000C94F0000C94F000000000002300260027
:100070002900663D00476972734C69746520312E12
:10008000302E32002E002E00546869732063616E9A
:100090006E6F742068617070656E004552524F52E9
:1000A00000476972734C69746520312E302E32001E
:1000B0004552524F52004F4B004552524F52007220
:1000C000656365697665004E6F2073756368207699
:1000D00061726961626C65006361707475726573E9
:1000E0000072656365697665650063617074757239
:1000F0006565006265670042617365205472616ED8
:10010000736D697420436170747572652052656304
:1001100065697665204C656420506172616D657417
:10012000657273006D6F64756C6573004552524F54
:1001300052004F4B006C6564004F4B000000000004
:10014000240027002A0000000000250028002B00C2
:10015000040404040404040402020202020203036D
:100160000303030301020408102040800102040875
:100170001020010204081020000000080002010005
:1001800000030407000000000000000046133A13BB
:1001900011241FBECFEFD8E0DEBFCDBF12E0A0E03C
:1001A000B1E0EEE6FDE202C005900D92AC34B1077D
:1001B000D9F723E0ACE4B2E001C01D92AA33B20744
:1001C000E1F710E0C7ECD0E004C02197FE010E94E7
:1001D000B515C63CD107C9F70E94F60C0C94AA16B7
:1001E0000C940000DC01ED91FC910190F081E02D78
:1001F0000994CF92DF92EF92FF920F931F93CF93C8
:10020000DF936C017A018B01C0E0D0E0CE15DF05F1
:1002100081F0D8016D918D01D601ED91FC91019095
:10022000F081E02DC6010995892B11F02196EECFC2
:100230007E01C701DF91CF911F910F91FF90EF9049
:10024000DF90CF900895089580E090E00895FC013C
:10025000538D448D252F30E0842F90E0821B930B2B
:10026000541710F0CF96089501970895FC01918DD1
:10027000828D981761F0828DDF01A80FB11D5D9608
:100280008C91928D9F5F9F73928F90E008958FEF76
:100290009FEF0895FC01918D828D981731F0828D2A
:1002A000E80FF11D858D90E008958FEF9FEF089581
:1002B000FC01918D228D892F90E0805C9F4F821BE5
:1002C00091098F73992708958EE692E00E94580154
:1002D00021E0892B09F420E0822F0895FC01848D10
:1002E000DF01A80FB11DA35ABF4F2C91848D90E060
:1002F00001968F739927848FA689B7892C93A0893B
:10030000B1898C91837080648C93938D848D9813C4
:1003100006C00288F389E02D80818F7D8083089557
:10032000EF92FF920F931F93CF93DF93EC0181E045
:10033000888F9B8D8C8D981305C0E889F989808101
:1003400085FD26C0F62E0B8D10E00F5F1F4F0F733B
:100350001127E02E8C8DE8120CC00FB607FCFACFE7
:10036000E889F989808185FFF5CFCE010E946E0171
:10037000F1CF8B8DFE01E80FF11DE35AFF4FF082A4
:100380009FB7F8940B8FEA89FB89808180620AC04D
:100390009FB7F894EE89FF896083E889F9898081A5
:1003A0008370806480839FBF81E090E0DF91CF9174
:1003B0001F910F91FF90EF900895CF93DF93EC0181
:1003C000888D8823C9F0EA89FB89808185FD05C075
:1003D000A889B9898C9186FD0FC00FB607FCF5CFAF
:1003E000808185FFF2CFA889B9898C9185FFEDCFF7
:1003F000CE010E946E01E7CFDF91CF91089580E09A
:1004000090E0892B29F00E94640181110C94000076
:10041000089557FF0AC05F776627772785E0440F66
:10042000551F661F771F8A95D1F7CB01BA01089532
:1004300080E090E00895605F7F4F25E076956795B6
:100440002A95E1F7FC0167870895FC0163857485AF
:100450008585968508950F931F93CF93DF93EC01C5
:100460008B01CB01880F991FE889F989E80FF91FE3
:100470004081518160E070E0E881F98102A0F3A140
:10048000E02DCE0109959B01AC01A8EEB3E00E94DE
:10049000311520ED37E040E050E00E940F158885CF
:1004A000998500FD03C0919581959109092E000C55
:1004B000AA0BBB0B820F931FA41FB51F009721E04F
:1004C000A207B10510F08FEF9FEFDF91CF911F9141
:1004D0000F910895FC01828581110AC0CF0101901E
:1004E000F081E02D0688F789E02D099591E08927B4
:1004F0000895DC01ED91FC9100A0F1A1E02D09949B
:10050000FC012289338944895589A2E3B0E00E9425
:10051000311528EE33E040E050E00E940F15C9018C
:100520000895FC012685378540895189A2E3B0E012
:100530000E94311528EE33E040E050E00E940F1594
:10054000C9010895CF93DF93EC019B01A8EEB3E0BE
:100550000E94731522E330E040E050E00E940F1546
:100560002A8B3B8B4C8B5D8BDF91CF910895CF9382
:10057000DF93EC019B01A8EEB3E00E94731522E328
:1005800030E040E050E00E940F152E873F87488BF7
:10059000598BDF91CF910895109270000895DC017E
:1005A000ED91FC910480F581E02D0995F89482E0AD
:1005B0008093B0008093B10094E69093B3001092C2
:1005C000B2008093700078940895FC01158614861B
:1005D000158E148E08950F931F93CF93DF93EC0124
:1005E000AB01CB01880F991FEA8DFB8DE80FF91F36
:1005F00020813181A2E3B0E00E947315088519853E
:1006000040FD03C0119501951109012E000C220B2C
:10061000330BDC01CB01800F911FA21FB31F00978A
:1006200021E0A207B10510F08FEF9FEFDF91CF918E
:100630001F910F910895CF93DF93EC01E881F98129
:100640000084F185E02D0995E881F9810684F7851C
:10065000E02DCE0109958823B9F3E881F981028460
:10066000F385E02DCE01DF91CF91099460E774E925
:1006700080E090E00895FC01828193810895FC015F
:10068000848195810895FC01758364830895FC013C
:1006900012860895FC01138A128A0895FC0182894A
:1006A00093890895FC012485358581E02330310547
:1006B00009F080E00895FC01848D958D0895FC017A
:1006C000738362830895DC01ED91FC910088F189C8
:1006D000E02D099521E0892B09F020E0822F089573
:1006E0000E9481160C943E144F925F926F927F92FB
:1006F0008F929F92AF92BF92CF92DF92EF92FF9232
:100700000F931F93CF93DF938C010E94880CF80105
:10071000228133816B017C01C20ED31EE11CF11CCE
:10072000A5B4809181008F7B8093810080918400AB
:10073000909185000197909389008093880083E2CF
:1007400086BBC089D1899FB6B5990DC00E94880C1F
:100750006C157D058E059F05B8F381E0F801828751
:1007600028EC30E0C1C085B5887F85BDE09086006B
:10077000F0908700F0928900E0928800F89482E27D
:1007800086BB80E090E0DC0160E0C12CE4E08E2ECE
:10079000DD24D39428EC30E0F2E2BF2EF80146814C
:1007A000578142505048440F551F60887188460D4C
:1007B000571D4C175D0708F497C046B3542F52726B
:1007C000E1F3E0918600F0918700F0938900E093D7
:1007D000880041FF38C0F8014785641778F1009719
:1007E000A105B10509F480C08115F0E89F07A105B6
:1007F000B10540F0F5E0B695A79597958795FA95E0
:10080000D1F7906899838883F801878590E0A0E00C
:10081000B0E0DC01992788278115F0E89F07A10542
:10082000B10540F075E0B695A795979587957A95AF
:10083000D1F790689B838A83249656C06F5FB6BABF
:10084000F7017F01ABCFB6BAAF014E195F092A019C
:10085000612C712C662AA90160E070E044165506EF
:1008600066067706C8F4840D951DA61DB71D811078
:1008700002C060E0E6CFC3948C10FBCF2C013D0199
:100880000D2C04C076946794579447940A94D2F739
:100890009201D394880CEDCF811540E89407A1050F
:1008A000B10540F065E0B695A795979587956A954F
:1008B000D1F7906899838883411480E858066104D1
:1008C000710448F055E076946794579447945A958C
:1008D000D1F7689457F85B824A82249680E090E0D2
:1008E000DC0160E0812CADCFA5BC9FBEF801808902
:1008F0009189C81BD90BD595C795D38BC28B283C42
:10090000310529F4138614861586168617C0369588
:100910002795A8EEB3E00E9473159B01AC01569594
:1009200047953795279560E07AEC8AE99BE30E942A
:100930000F15F8012387348745875687DF91CF91BC
:100940001F910F91FF90EF90DF90CF90BF90AF90ED
:100950009F908F907F906F905F904F90089560E090
:10096000FC0182810C94780A8F929F92AF92BF9281
:10097000CF92DF92EF92FF920F931F93CF93DF936B
:100980008C016B0149015A011092700061E083E013
:100990000E94A70A60E083E00E94780AC501B401C2
:1009A00028EE33E040E050E00E940F153327442743
:1009B000552760E47FE180E090E00E94961581E099
:1009C0008093B00089E08093B1002093B3008BEA5C
:1009D000289F212D112426952093B400C0E0D0E05B
:1009E00068EEE62E63E0F62ED60114968D919C916A
:1009F0001597C817D90708F04CC05E01B1E0AB22CB
:100A0000BB24B501E1E06E27D80112968C910E94BB
:100A1000780A8091B000AB2811F08F7D01C0806210
:100A20008093B000D6011296ED91FC911397CE0100
:100A3000880F991FE80FF91F208131812115310599
:100A400031F12138BEE33B07B8F0C901B7010E947C
:100A500082158230910538F0880F991F880F991FF1
:100A600005970197F1F7C901B7010E94821580E04F
:100A700090E00E940C0B0BC02130310541F0C90100
:100A8000880F991F880F991F05970197F1F72196F5
:100A9000ABCF60E0F8018281DF91CF911F910F9180
:100AA000FF90EF90DF90CF90BF90AF909F908F908E
:100AB0000C94780A0F931F93CF93DF93EC018881F6
:100AC0009981009729F02A813B812617370788F4FE
:100AD0008B016F5F7F4F0E94BB15009761F0998378
:100AE00088831B830A832C813D81232B11F4FC0115
:100AF000108281E001C080E0DF91CF911F910F91C2
:100B00000895EF92FF920F931F93CF93DF93EC0121
:100B10007B018A01BA010E945A052881398181111D
:100B20000DC02115310519F0C9010E943E1419822A
:100B300018821D821C821B821A8206C01D830C83B0
:100B4000B701C9010E94A316CE01DF91CF911F9179
:100B50000F91FF90EF900895FC01808191810C949A
:100B60003E14FC01118210821382128215821482BB
:100B70006115710551F0FB0101900020E9F73197F3
:100B8000AF01461B570B0C9481050895BF92CF927D
:100B9000DF92EF92FF920F931F93CF93DF937C012D
:100BA0006B01EA0189012417350720F48D2FE90133
:100BB000042F182F6CE272E0C7010E94B105D60124
:100BC00014968D919C911597C817D907C0F5801779
:100BD000910708F48C01D601ED91FC911197E00F7B
:100BE000F11FB08010826D917C916C0F7D1F61159B
:100BF000710561F0FB0101900020E9F73197AF0129
:100C0000461B570BC7010E94810513C0F701808165
:100C10009181009711F00E943E14D70111961C9209
:100C20001E9215961C921E92149713961C921E9259
:100C30001297D601ED91FC91E00FF11FB082C70130
:100C4000DF91CF911F910F91FF90EF90DF90CF90A8
:100C5000BF900895EF92FF920F931F93CF93DF936E
:100C60008C017B01C0E0D0E0F701EC0FFD1F649127
:100C7000662361F0D801ED91FC910190F081E02DA7
:100C8000C8010995892B11F02196EECFCE01DF9195
:100C9000CF911F910F91FF90EF900895611571050D
:100CA00079F0FB0101900020E9F73197AF01461B75
:100CB000570BDC01ED91FC910280F381E02D09944A
:100CC00080E090E008958F929F92AF92BF92EF9252
:100CD000FF920F931F93CF93DF93CDB7DEB7A1970A
:100CE0000FB6F894DEBF0FBECDBF7C01FA01CB0179
:100CF00019A2223008F42AE08E010F5D1F4F822EC8
:100D0000912CA12CB12CBF01A50194010E940F15BB
:100D1000F901CA01015011096A3014F4605D01C083
:100D2000695CD8016C93232B242B252B61F7B80128
:100D3000C7010E944E06A1960FB6F894DEBF0FBE03
:100D4000CDBFDF91CF911F910F91FF90EF90BF909A
:100D5000AF909F908F9008958F929F92AF92BF9285
:100D6000CF92DF92EF92FF920F931F93CF93DF9377
:100D70007C018B016C0182E0C80ED11C4701E5E0CB
:100D80008E0E911CC0E0D0E0F60141916F0150E061
:100D900060E070E02AE0C8010E9463065C016EE238
:100DA000C8010E94F2008A0D9B1DC80FD91FC814EC
:100DB000D90451F7F701458150E060E070E02AE086
:100DC000C8010E9463068C0F9D1FDF91CF911F9178
:100DD0000F91FF90EF90DF90CF90BF90AF909F90DA
:100DE0008F900895CF92DF92EF92FF920F931F930F
:100DF000CF93DF937C018B01DC01ED91FC910088A6
:100E0000F189E02D09956C01C0E0D0E0CC15DD053D
:100E100009F1209729F068E272E0C8010E944E06AD
:100E2000C0FD02C06BE201C06DE2C8010E94F20089
:100E3000D701ED91FC910288F389E02DBE01C70135
:100E40000995AC0160E070E02AE0C8010E946306E9
:100E50002196DCCF6AE272E0C801DF91CF911F9149
:100E60000F91FF90EF90DF90CF900C944E06CF92B1
:100E7000DF92EF92FF920F931F93CF93DF938C013A
:100E8000EB01DC01ED91FC910680F781E02D0995E5
:100E90006B017C01DC01CB010197A109B1098E3FF7
:100EA0009F4FAF4FBF4F78F462E770E0CE010E94D2
:100EB0002A062AE0B701A601CE010E94630660E27D
:100EC000CE010E94F200BE01C801DF91CF911F91B7
:100ED0000F91FF90EF90DF90CF900C94F2061F924D
:100EE0000F920FB60F9211242F933F934F935F935E
:100EF0006F937F938F939F93AF93BF93EF93FF93E2
:100F00008EE692E00E946E01FF91EF91BF91AF914A
:100F10009F918F917F916F915F914F913F912F9111
:100F20000F900FBE0F901F9018951F920F920FB643
:100F30000F9211242F938F939F93EF93FF93E09140
:100F40007E02F0917F028081E0918402F09185021F
:100F500082FD12C09081809187028F5F8F732091F4
:100F60008802821751F0E0918702F0E0E259FD4FCC
:100F7000958F8093870201C08081FF91EF919F91AF
:100F80008F912F910F900FBE0F901F90189524E90D
:100F900031E0FC013183208380899189009711F031
:100FA0000C943E140895CF93DF93EC010E94C70781
:100FB000CE01DF91CF910C943E14FC0186E192E0CA
:100FC000918380838681882331F082819381009789
:100FD00011F00C943E140895CF93DF93EC0180E25E
:100FE00091E099838883CE0144960E94DD07CE016B
:100FF0000D960E94DD07CE010696DF91CF910C94ED
:10100000DD07CF93DF93EC010E94EC07CE01DF9167
:10101000CF910C943E14CF93DF93EC010E94DD0737
:10102000CE01DF91CF910C943E141F920F920FB618
:101030000F9211240F931F932F933F934F935F931E
:101040006F937F938F939F93AF93BF93CF93DF93D0
:10105000EF93FF93C0916802D09169022B8530E035
:10106000F901E858FE4F8491F901EC59FE4F0491C3
:10107000F901E05BFE4F14911123A1F081110E9450
:101080004F0AE12FF0E0EE0FFF1FE859FF4FA59147
:10109000B491EC91E02331E020E009F430E0832FBB
:1010A000922F02C080E090E04E895F89688D798D33
:1010B0004F5F5F4F6F4F7F4F4E8B5F8B688F798F86
:1010C0004C8D5D8D2E813F814217530720F023E028
:1010D00030E03D872C872C853D852130310561F13D
:1010E00028F02230310509F444C083C0892B19F45B
:1010F0001D8E1C8E53C04E895F89688D798D8A89BB
:101100009B89AC89BD89481759076A077B0708F492
:1011100070C0EC8DFD8DEE0FFF1F8A8D9B8DE80F4B
:10112000F91F8E899F89A88DB98D918380831E8A2E
:101130001F8A188E198E59C0019709F05AC0EA8D7E
:10114000FB8D8C8D9D8D9C012F5F3F4F3D8F2C8F94
:10115000880F991FE80FF91F8E899F89A88DB98D77
:10116000918380831E8A1F8A188E198E82E090E0F8
:101170003EC0892BD1F4EA8DFB8D8C8D9D8D9C0119
:101180002F5F3F4F3D8F2C8F880F991FE80FF91F5E
:101190008E899F89A88DB98D918380831E8A1F8A2D
:1011A000188E198E81E090E022C04E895F89688D8B
:1011B000798D8E859F85A889B98984179507A6079B
:1011C000B707B8F4EA8DFB8D8C8D9D8D9C012F5F48
:1011D0003F4F3D8F2C8F880F991FE80FF91F8E8985
:1011E0009F89A88DB98D9183808383E090E09D874E
:1011F0008C87FF91EF91DF91CF91BF91AF919F913C
:101200008F917F916F915F914F913F912F911F919E
:101210000F910F900FBE0F901F9018952CE431E0A6
:10122000FC0131832083828D938D009711F00C9403
:101230003E140895CF93DF93EC010E940E09CE0176
:10124000DF91CF910C943E140895CF93DF939FEFDD
:10125000980F983060F56330710549F1E82FF0E0A0
:10126000E55BFD4FE081EF3F11F1F0E0ED5AFD4FFE
:1012700080818F3FE1F091E06130710509F490E0E9
:10128000EB01692F0E94780A229799F40E94880C3A
:10129000DC01CB018053984FAF4FBF4F80935C026E
:1012A00090935D02A0935E02B0935F0202C080E063
:1012B00001C081E0DF91CF9108950F931F93CF93E9
:1012C0000E94880C00915C0210915D0220915E02E8
:1012D00030915F020617170728073907D8F400E690
:1012E00012E0C1E0F80181918F01882329F061E0CB
:1012F00070E08C2F0E942509CF5FC93099F78FEFDE
:101300009FEFDC0180935C0290935D02A0935E02EC
:10131000B0935F02CF911F910F910895CF92DF920A
:10132000EF92FF92CF93DF93EB016C01990FEE08E0
:10133000FF08C701B6010E94DE0C9C01B701A6019F
:10134000888199810E94E80C21E0892B09F020E036
:10135000822FDF91CF91FF90EF90DF90CF90089593
:101360002CEE31E0FC01318320830C94AF04CF9349
:10137000DF93EC010E94B009CE01DF91CF910C9474
:101380003E14CF93C82F61E00E94A70A60E08C2F23
:10139000CF910C94780A8EE692E00E945801892B36
:1013A00029F08EE692E00E943601F5CF08950F9362
:1013B0001F93CF93DF93EC010E942A068C016AE20F
:1013C00072E0CE010E944E06800F911FDF91CF91F7
:1013D0001F910F9108950F931F930E94880C6093A3
:1013E00076027093770280937802909379028EE66A
:1013F00092E00E94360197FF1FC00E94880C009166
:101400007602109177022091780230917902DC0106
:10141000CB01801B910BA20BB30B009172021091B8
:101420007302209174023091750280179107A20710
:10143000B307E8F28FEF9FEF1F910F910895CF92BE
:10144000DF92EF92FF926A017B01BC018EE692E08F
:101450000E944E0669E472E08EE692E00E944E061B
:101460002AE0B701A6018EE692E00E9463066AE2D6
:1014700072E08EE692E0FF90EF90DF90CF900C94B8
:101480004E06FC0124813581232B21F0808191813E
:10149000009721F410920B038BE093E008958330C2
:1014A00081F028F4813099F08230A1F008958730DE
:1014B000A9F08830B9F08430D1F4809180008F7D1C
:1014C00003C0809180008F7780938000089584B559
:1014D0008F7702C084B58F7D84BD08958091B00060
:1014E0008F7703C08091B0008F7D8093B000089506
:1014F0001F93CF93DF93282F30E0F901E858FE4F78
:101500008491F901EC59FE4FD491F901E05BFE4F53
:10151000C491CC23C1F0162F81110E944F0AEC2FE9
:10152000F0E0EE0FFF1FEA5BFE4FA591B4919FB76D
:10153000F894111104C08C91D095D82302C0EC917D
:10154000DE2BDC939FBFDF91CF911F910895CF9346
:10155000DF9390E0FC01EC59FE4F2491FC01E05B2D
:10156000FE4F8491882361F190E0880F991FFC0160
:10157000E45CFE4FC591D491FC01EA5BFE4FA5915E
:10158000B491611109C09FB7F89488812095822396
:101590008883EC912E230BC0623061F49FB7F894DE
:1015A0008881322F309583238883EC912E2B2C93C6
:1015B0009FBF06C08FB7F894E8812E2B28838FBF7A
:1015C000DF91CF910895CF93DF9380916C0290913A
:1015D0006D02892BD1F483E090E00E94A613EC0108
:1015E0008CEE91E09983888383E08A8361E00E9496
:1015F000A70A60E083E00E94780A88EF91E099836F
:101600008883D0936D02C0936C0280916C0290919C
:101610006D02DF91CF9108958F929F92AF92BF920A
:10162000CF92DF92EF92FF926B017C010E94630CDC
:101630004B015C01C114D104E104F104F1F00E94FA
:10164000630CDC01CB0188199909AA09BB09883E02
:101650009340A105B10570F321E0C21AD108E10859
:10166000F10888EE880E83E0981EA11CB11CC114FD
:10167000D104E104F10419F7DDCFFF90EF90DF9082
:10168000CF90BF90AF909F908F9008954F925F92B0
:101690006F927F928F929F92AF92BF92CF92DF9282
:1016A000EF92FF920F931F93CF93DF9300D000D060
:1016B00000D0CDB7DEB76C017B01DB011296AD9097
:1016C000BC901397B7FE05C06CE272E00E94B105B2
:1016D0006BC0FB0184809580D40114964D905C9082
:1016E0001597A414B504C8F46D907C9060E270E086
:1016F000C3018A0D9B1D0E948F16009771F08C010B
:10170000061917091016110644F49801A501B40131
:10171000CE0101960E94C60509C09201A501B4013F
:10172000CE0101960E94C6050FEF1FEFF70113834C
:1017300002830F3F1F4F09F1D7011496ED91FC91E1
:10174000159744815581D70112968D919C911397DD
:101750008417950790F4208131812115310569F0B6
:10176000D901A80FB91F2C91203239F40196D70165
:1017700013969C938E931297E6CF89819A81F601F6
:10178000918380838B819C81938382838D819E81D1
:10179000958384831A8219821C821B821E821D8279
:1017A000CE0101960E94AC05C60126960FB6F894AC
:1017B000DEBF0FBECDBFDF91CF911F910F91FF9084
:1017C000EF90DF90CF90BF90AF909F908F907F90E1
:1017D0006F905F904F900895EF92FF920F931F9339
:1017E000CF93DF9300D000D000D0CDB7DEB7BC01DF
:1017F000CE0101960E94460B89819A81009729F0BB
:101800000E94C7147B018C0104C0E12CF12C00E084
:1018100010E0CE0101960E94AC05C701D8010097E7
:1018200021E0A207B10524F08FEF9FEFA0E0B0E028
:1018300026960FB6F894DEBF0FBECDBFDF91CF91D5
:101840001F910F91FF90EF900895CF92DF92EF924A
:10185000FF92CF93DF9300D000D000D0CDB7DEB79A
:10186000BC01CE0101960E94460B8D819E81892B81
:1018700069F089819A81FC012081222339F0009747
:1018800061F00E94C7146B017C010AC0CC24CA9489
:101890008FE7D82EE12CF12C03C0C12CD12C76017E
:1018A000CE0101960E94AC05C701B60126960FB67F
:1018B000F894DEBF0FBECDBFDF91CF91FF90EF90C8
:1018C000DF90CF9008953FB7F894809132039091C4
:1018D0003303A0913403B091350326B5A89B05C00E
:1018E0002F3F19F00196A11DB11D3FBFBA2FA92F9F
:1018F000982F8827820F911DA11DB11DBC01CD011C
:1019000042E0660F771F881F991F4A95D1F7089507
:101910002FB7F89460912E0370912F0380913003BC
:10192000909131032FBF08951F920F920FB60F921F
:1019300011242F933F938F939F93AF93BF938091E5
:101940002E0390912F03A0913003B0913103309179
:101950002D0323E0230F2D3720F40196A11DB11D87
:1019600005C026E8230F0296A11DB11D20932D036B
:1019700080932E0390932F03A0933003B0933103F1
:101980008091320390913303A0913403B0913503D9
:101990000196A11DB11D8093320390933303A09350
:1019A0003403B0933503BF91AF919F918F913F91D5
:1019B0002F910F900FBE0F901F901895FB0105906F
:1019C0000020E9F7609570956E0F7F1FCB01089599
:1019D000FA01DC012150304030F08D9105908019E2
:1019E00019F40020B9F7881B990B0895CF93DF9362
:1019F000CDB7DEB7C155D1090FB6F894DEBF0FBE23
:101A0000CDBF789484B5826084BD84B5816084BD87
:101A100085B5826085BD85B5816085BD80916E008C
:101A2000816080936E0010928100809181008260BD
:101A300080938100809181008160809381008091FA
:101A400080008160809380008091B10084608093E9
:101A5000B1008091B00081608093B00080917A00E5
:101A6000846080937A0080917A00826080937A000B
:101A700080917A00816080937A0080917A008068FA
:101A800080937A001092C1008EE00E94C10980E12B
:101A90000E94C10982E10E94C10961E086E00E94C2
:101AA000A70A60E086E00E94780A61E087E00E9471
:101AB000A70A61E087E00E94780A61E089E00E945D
:101AC000A70A60E089E00E94780A61E08AE00E944B
:101AD000A70A61E08AE00E94780A0E94E30ADC011A
:101AE000ED91FC910680F781E02D099504E111E06C
:101AF00074E5E72E72E0F72EECE1CE2EE1E0DE2E6B
:101B0000F80181918F01D7018D937D018F3F19F0ED
:101B100061E00E94A70AC016D10691F781E0809388
:101B20004C0282E080934D0283E080934E0284E079
:101B300080934F0285E08093500286E080935102AB
:101B400087E08093520288E080935302E0E6F2E05F
:101B500088E692E021E021938E179F07E1F78FEF4F
:101B60009FEFDC0180935C0290935D02A0935E0284
:101B7000B0935F026DE272E0CE0101960E94B10562
:101B8000CE0101960E94AC0511E060E070E0812F6B
:101B90000E9425091F5F1930C1F768EC70E080E0F2
:101BA00090E00E940C0B11E061E070E0812F0E9438
:101BB00025091F5F1930C1F78FEF9FEFDC0180937C
:101BC0005C0290935D02A0935E02B0935F0210925C
:101BD00063021092620210926102E0917E02F09123
:101BE0007F0282E08083E0917A02F0917B02108292
:101BF000E0917C02F0917D0280E180831092860268
:101C0000E0918202F091830286E08083E09180027D
:101C1000F0918102808180618083E0918002F09167
:101C20008102808188608083E0918002F09181024E
:101C3000808180688083E0918002F09181028081C0
:101C40008F7D808365E770E08EE692E00E94D70981
:101C500088E893E1A0E0B0E0809372029093730271
:101C6000A0937402B09375021E01B8E22B0E311CD2
:101C700085E391E09C01990F440B550B2A962CAFFC
:101C80003DAF4EAF5FAF2A9784E291E09C01990F80
:101C9000440B550B2E962CAF3DAF4EAF5FAF2E973A
:101CA0008FEB90E09C01990F440B550B62962CAF83
:101CB0003DAF4EAF5FAF62970E945D0960E070E09C
:101CC00082E00E9425098EE692E00E945801892B4D
:101CD00019F40E945D09F7CF6CE272E0C1010E9425
:101CE000B1050E94EB0997FD1DC08D309105D1F023
:101CF00089831A820CA51DA50F5F1F4FB801C10172
:101D00000E945A05882369F328A539A58CA59DA5AD
:101D1000BE016F5F7F4F820F931F0E94A3161DA706
:101D20000CA7DFCFC8A4D9A4C114D104E9F10CA534
:101D30001DA501151105C1F1760157013FEFA31A49
:101D4000B30AD7018C91082E000C990B0E94EE1457
:101D5000892B11F07501F1CF015011090C0D1D1DDA
:101D6000F8018081082E000C990B0E94EE14892B3B
:101D700031F00E151F0518F001501109F1CFA8011F
:101D80004F5F5F4F4E195F095DA74CA7CE14DF046C
:101D900020F4B701C6010E948616E8A5F9A58CA516
:101DA0009DA5E80FF91F108261E070E082E00E94BB
:101DB000250984EE91E09BA38AA31DA21CA23FA249
:101DC0002EA2BE016E5D7F4FCE014C960E94460B47
:101DD00088A199A1892B19F469E371E031C0CE0182
:101DE0004C960E94410ADC018C91813609F42DC386
:101DF000CE014C960E94410AFC018081833609F491
:101E000024C3E8A0F9A00C8D1D8D97012A964CAD36
:101E10005DAD6EAD7FAD2A97C8010E94E80C892B9D
:101E2000E9F097012E964CAD5DAD6EAD7FAD2E976E
:101E3000C8010E94E80C892B09F04CC067EF70E0E4
:101E40008EE692E00E94D709CE014C960E94AC0526
:101E5000C1010E94AC050E94FF012ECFCE018296E7
:101E60000E94250CF62EBE016E5D7F4FCE010196BD
:101E70000E94460B09811A8101151105F1F06CE3EE
:101E800072E0C8010E949A16892B89F06FE372E014
:101E9000C8010E949A16892B69F063E472E0C801B8
:101EA0000E949A16892B49F462E070E008C060E055
:101EB00070E005C061E070E002C063E070E08F2D6B
:101EC0000E942509811103C06CE271E079C062E3D0
:101ED00071E076C0CE014C960E94410AFC018081DF
:101EE000803709F076C0BE016E5D7F4FCE0101964E
:101EF0000E94460BCE0182960E94250C6B017C014C
:101F0000BE016F5F7F4F83EF90E00E948E098111C9
:101F10000CC0BE016F5F7F4F8AEE90E00E948E0979
:101F2000882331F006E011E005C00AE011E002C0AC
:101F300000E010E0BE016F5F7F4F81EE90E00E94F5
:101F40008E0981110AC0BE016F5F7F4F88ED90E05E
:101F50000E948E09811116C02EC002E011E0FFEF31
:101F6000CF16FFE7DF06E104F10431F0D801CD928E
:101F7000DD92ED92FC921397F801408151816281CC
:101F8000738114C00115110551F7FFEFCF16FFE75C
:101F9000DF06E104F10421F0D0920101C0920001BA
:101FA000409100015091010160E070E089819A81C7
:101FB0000E941F0A09C00115110589F667EC70E03F
:101FC0008EE692E00E94D709CE0101960E94AC05F0
:101FD0003BCF28A139A162964CAD5DAD6EAD7FAD12
:101FE00062978C8D9D8D0E94E80C892B09F0ABC007
:101FF00000916802109169020115110509F063C092
:10200000E0900001F09001018EE190E00E94A613A3
:102010008C01E0FE03C02FEFE21AF20AD8011796F6
:10202000FC92EE9216971A961C921A9788E291E00B
:1020300011969C938E9385E01B968C931B9782E35D
:1020400090E019969C938E93189760E085E00E942B
:10205000A70A8CE491E0F8019183808380E49CE9F5
:10206000A0E0B0E0828B938BA48BB58B88E592E0E7
:10207000A0E0B0E086879787A08BB18B868197819F
:102080008138FFE39F0718F4880F991F02C08FEF74
:102090009FEF0E94A613D8015B969C938E935A974C
:1020A0005D961C921E925C97F801168A178A108E14
:1020B000118E15861486109369020093680201152B
:1020C000110509F4D4C26091020170910301D80195
:1020D000ED91FC91008CF18DE02DC8010995609186
:1020E0000A0170910B01D801ED91FC91048CF58DE2
:1020F000E02DC801099582E390E0F801918780877F
:102100000E94CB0960E070E083E00E942509D801BD
:10211000ED91FC910084F185E02DC8010995D8016D
:10212000ED91FC910684F785E02DC8010995811198
:1021300059C28EE692E00E945801892B09F052C2E2
:102140000E945D09ECCFCE014C960E94410AFC0131
:102150008081833709F06BC12DB73EB73FAF2EAFFB
:10216000CE0182960E94250C4B01BE016E5D7F4F11
:10217000CE0101960E94460B89819A81009729F031
:102180000E94C7146B017C0103C0C12CD12C7601C5
:10219000CE0101960E94AC058E010E5D1F4FC80155
:1021A0000E94250C6EA77FA788AB99AB4EA55FA5B3
:1021B00022965FAF4EAF2297C8010E94250C6AABF2
:1021C0007BAB8CAB9DAB8AA99BA924969FAF8EAFAE
:1021D0002497C8010E94250C2B013C0126967FAF55
:1021E0006EAF26978EA59FA5880F991FADB7BEB776
:1021F000A81BB90B0FB6F894BEBF0FBEADBFEDB7AD
:10220000FEB73196F9AFE8AF8AA99BA9880F991F4D
:102210002DB73EB7281B390B0FB6F8943EBF0FBE43
:102220002DBF4DB75EB74F5F5F4F5BAF4AAFC20187
:10223000880F991FADB7BEB7A81BB90B0FB6F8949E
:10224000BEBF0FBEADBFEDB7FEB73196FDAFECAF71
:1022500028AD39AD3FAB2EABA12CB12C22964EADA3
:102260005FAD2297A416B50668F4C8010E94EC0B76
:10227000AEA9BFA98D939D93BFABAEABBFEFAB1A19
:10228000BB0AECCFAAACBBAC00E010E02496EEADEC
:10229000FFAD24970E171F0758F4CE0182960E94B7
:1022A000EC0BD5018D939D935D010F5F1F4FEECF1A
:1022B000ACACBDAC00E010E02696EEADFFAD2697CD
:1022C0000E171F0758F4CE0182960E94EC0BD50121
:1022D0008D939D935D010F5F1F4FEECF80E291E0E4
:1022E0009A838983CB82DC82ED82FE8286E192E052
:1022F00098878F83E8ADF9ADFA87E9872EA53FA5CA
:102300003C872B871D869F878E874AAD5BAD598B97
:10231000488BAAA9BBA9BB8BAA8B1C8A9E8B8D8BD1
:10232000ECADFDADF88FEF8B5A8E498E1B8E81146C
:10233000910409F46AC060E070E084E00E9425091D
:102340000E94E30A8C018B859C85892B79F02B8177
:102350003C814D815E81D801ED91FC910480F58135
:10236000E02DBE01695F7F4FC8010995E12CF12C7A
:102370006401B1E0CB1AD1088B859C85892B11F0C3
:10238000C60101C0C401E816F90698F42B813C810E
:102390004D815E81D801ED91FC910480F581E02DA5
:1023A000BE01625F7F4FC8010995BFEFEB1AFB0AC0
:1023B000E3CF898D9A8D892B79F02B813C814D81DA
:1023C0005E81D801ED91FC910480F581E02DBE0184
:1023D0006B5E7F4FC801099580916C0290916D02F0
:1023E000009739F0DC01ED91FC910280F381E02D42
:1023F000099510926D0210926C0261E070E084E029
:102400000E94250966EB70E002C060EB70E08EE68A
:1024100092E00E94D709CE0101960E94EC07EEAD32
:10242000FFAD0FB6F894FEBF0FBEEDBF0DCDCE01D0
:102430004C960E94410ADC018C91863719F461EABE
:1024400070E0FECC6BE970E0FBCC80916A02909169
:102450006B02892B09F058C0E0900001F090010157
:1024600084E190E00E94A6138C01E0FE03C0FFEF20
:10247000EF1AFF0AD8011796FC92EE9216971A9659
:102480001C921A9784E991E011969C938E93209860
:1024900080916400877F809364001092800082E8BE
:1024A000809381001696ED90FC901797B1E8EB169B
:1024B000BFE3FB0620F4C701880F991F02C08FEF0E
:1024C0009FEF0E94A613F801808B918B11861086D6
:1024D00020ED37E03383228321E02787FC0180E071
:1024E00090E0E816F90621F0119211920196F9CFC9
:1024F0008CEB91E0D8018D939C9310936B02009329
:102500006A020115110541F468E870E08EE692E078
:102510000E94D70900E010E0609106017091070168
:10252000D801ED91FC91008CF18DE02DC801099549
:1025300060910A0170910B01D801ED91FC91048C1E
:10254000F58DE02DC801099586EF9FEFF801918781
:1025500080870190F081E02D0480F581E02DC80195
:10256000099560E070E083E00E9425090E94CB0994
:10257000D801ED91FC9100A0F1A1E02DC8010995D1
:1025800061E070E083E00E942509D801ED91FC91A3
:102590000688F789E02DC801099581110BC0D80183
:1025A000ED91FC910488F589E02D6EE672E0C8019A
:1025B000099506C066E870E08EE692E00E94D709B1
:1025C00080916A0290916B02009739F0DC01ED91E5
:1025D000FC910280F381E02D099510926B0210921C
:1025E0006A0232CCD801ED91FC910684F785E02D8A
:1025F000C8010995F82ED801ED91FC910284F3856C
:10260000E02DC801099561E070E083E00E94250992
:10261000FF20D9F0D801ED91FC910688F789E02DD3
:10262000C8010995882339F064E870E08EE692E0ED
:102630000E94D7090AC0D801ED91FC910488F58960
:10264000E02D6EE672E0C8010995809168029091D4
:102650006902009739F0DC01ED91FC910280F38171
:10266000E02D09951092690210926802EDCB69EB9A
:1026700070E0E6CB8FE193E00E94DD0788E193E014
:102680000E94DD0786E293E00C94DD07EEE6F2E0BF
:102690001382128288EE93E0A0E0B0E084839583F9
:1026A000A683B78384E092E09183808385EC90E0F9
:1026B0009587848784EC90E09787868780EC90E00C
:1026C000918B808B81EC90E0938B828B82EC90E0FD
:1026D000958B848B86EC90E0978B868B118E128E77
:1026E000138E148EE6E2F3E086E192E0918380831C
:1026F00013821282158214821682E8E1F3E091833C
:1027000080832AE132E03383228324E030E0358382
:1027100024831682EFE1F3E0918380831382128297
:10272000158214821682ECE0F3E086E292E0918357
:1027300080831282138214821582E2E1F3E0918396
:102740008083128213821482158208950F931F933F
:10275000CF93DF938230910510F482E090E0E09116
:102760003803F091390320E030E0A0E0B0E030978A
:1027700019F1408151810281138148175907C8F02E
:102780008417950769F4109731F012960C931297FD
:1027900013961C9327C0009338031093390322C06B
:1027A0002115310519F04217530718F49A01BD019C
:1027B000EF01DF01F801DBCF21153105F9F0281B0E
:1027C000390B2430310580F48A819B8161157105B4
:1027D00021F0FB019383828304C09093390380939B
:1027E0003803FE01329644C0FE01E20FF31F8193CD
:1027F000919322503109398328833AC020913603BE
:1028000030913703232B41F42091100130911101B5
:10281000309337032093360320910E0130910F013E
:102820002115310541F42DB73EB740911201509169
:102830001301241B350BE0913603F0913703E217A7
:10284000F307A0F42E1B3F0B2817390778F0AC01D3
:102850004E5F5F4F2417350748F04E0F5F1F5093B0
:102860003703409336038193919302C0E0E0F0E098
:10287000CF01DF91CF911F910F910895CF93DF93F7
:10288000009709F481C0FC01329713821282A09153
:102890003803B0913903109781F420813181820F80
:1028A000931F20913603309137032817390751F5CC
:1028B000F0933703E093360367C0ED0120E030E08A
:1028C000CE17DF0740F44A815B819E014115510517
:1028D000F1F0EA01F5CFD383C28340815181840FA7
:1028E000951FC817D90759F488819981840F951FBE
:1028F0000296918380838A819B81938382832115B1
:10290000310529F4F0933903E09338033DC0E90120
:10291000FB83EA8349915991C40FD51FEC17FD073A
:1029200061F480819181840F951F0296E90199835A
:102930008883828193819B838A83E0E0F0E0129612
:102940008D919C911397009719F0FD01DC01F7CF51
:102950008D919C9111979D012E5F3F4F820F931F88
:1029600020913603309137032817390769F43097DF
:1029700029F4109239031092380302C01382128294
:10298000B0933703A0933603DF91CF9108951F933F
:10299000FC0199278827BC01E89411911032E9F3D2
:1029A000193010F01E30C8F31B3251F01D3249F4BB
:1029B000689406C00E94F714610F711D811D911D5E
:1029C000119110531A30B0F33EF4909580957095A4
:1029D00061957F4F8F4F9F4F1F91089591110C94D8
:1029E0000C15803219F089508550C8F70895592F79
:1029F000482F372F262F660F771F881F991F660FC6
:102A0000771F881F991F620F731F841F951F660F02
:102A1000771F881F991F0895992788270895A1E295
:102A20001A2EAA1BBB1BFD010DC0AA1FBB1FEE1F48
:102A3000FF1FA217B307E407F50720F0A21BB30B93
:102A4000E40BF50B661F771F881F991F1A9469F70F
:102A500060957095809590959B01AC01BD01CF016B
:102A600008950E947315A59F900DB49F900DA49F8B
:102A7000800D911D112408952F923F924F925F92E5
:102A80006F927F928F929F92AF92BF92CF92DF927E
:102A9000EF92FF920F931F93CF93DF93CDB7DEB7E3
:102AA000CA1BDB0B0FB6F894DEBF0FBECDBF099477
:102AB0002A88398848885F846E847D848C849B84CE
:102AC000AA84B984C884DF80EE80FD800C811B81DC
:102AD000AA81B981CE0FD11D0FB6F894DEBF0FBE0B
:102AE000CDBFED010895A29FB001B39FC001A39F88
:102AF000700D811D1124911DB29F700D811D112437
:102B0000911D0895AA1BBB1B51E107C0AA1FBB1F43
:102B1000A617B70710F0A61BB70B881F991F5A9569
:102B2000A9F780959095BC01CD010895052E97FBDE
:102B30001EF400940E94AD1557FD07D00E940F159A
:102B400007FC03D04EF40C94AD155095409530958C
:102B500021953F4F4F4F5F4F089590958095709509
:102B600061957F4F8F4F9F4F0895EE0FFF1F059088
:102B7000F491E02D0994A0E0B0E0E1ECF5E10C94D3
:102B80004015EC01009721F4CB010E94A613B4C0BC
:102B9000FC01E60FF71F9C0122503109E217F307F1
:102BA00008F4A8C0D9010D911C91119706171707B9
:102BB000B0F00530110508F49BC0C80104978617D2
:102BC000970708F495C002501109061B170B0193D3
:102BD00011936D937C93CF010E943E1489C05B01D9
:102BE000A01AB10A4C01800E911EA0913803B09139
:102BF0003903612C712CE12CF12C109709F446C09B
:102C00008D919C911197A815B905B1F56C0142E021
:102C1000C40ED11CCA14DB0478F14C018A189B083D
:102C2000640142E0C40ED11C1296BC901297139618
:102C3000AC91B5E0CB16D10440F0B282A38391826F
:102C40008082D9016D937C9309C00E5F1F4F800F66
:102C5000911FF90191838083EB2DFA2FE114F10488
:102C600031F0D7011396FC93EE93129741C0F09385
:102C70003903E09338033CC06816790608F43C0138
:102C80007D0112960D90BC91A02DB7CF8091360397
:102C90009091370388169906E1F466167706C8F412
:102CA00080910E0190910F01009741F48DB79EB76E
:102CB0004091120150911301841B950BE817F907FD
:102CC000C8F4F0933703E0933603F901718360830E
:102CD0000FC0CB010E94A6137C01009759F0A801F8
:102CE000BE010E948616CE010E943E14C70104C098
:102CF000CE0102C080E090E0CDB7DEB7EEE00C94EC
:102D00005C1581E090E0F8940C94AA16FB01DC01BC
:102D100002C001900D9241505040D8F70895FC0137
:102D20008191861721F08823D9F799270895319743
:102D3000CF010895FB01DC018D91019080190110F4
:102D4000D9F3990B0895FB01DC0101900D9200204D
:102D5000E1F7089510E0C7ECD0E004C0FE010E9446
:0E2D6000B5152196C83CD107C9F7F894FFCFEE
:102D6E0090013200000064000000102700000000F7
:102D7E003A0380000D0F1113FFFFFFFF000000004C
:102D8E00EC070108000000000000000047033603B6
:102D9E00230123011B03700370037003F206630308
:102DAE0043033F035F033B03000000000E091A09B3
:102DBE00E5023603CF02CC021B0352035B03EB0288
:102DCE00F2066303B7029102A20280020000000025
:102DDE0000000000470370032301230170037003FA
:102DEE0070037003F206630343033F035F033B0369
:102DFE0000000000000000004A0325022301230109
:102E0E0079026A024E032B02370763031B02180274
:102E1E005F033B037003700300000000C707D30776
:102E2E004A0325022301230179026A024E032B0273
:102E3E00370763031B0218025F033B037403090287
:102E4E0000000000240972030000000000000000D2
:102E5E007003AF0400000000B009B709B404AF045A
:102E6E00000000009001F9002701DD015801360134
:102E7E004A0100000000DD070B084023D008340291
:102E8E00FFFF00000000AC0620000D0A004769722B
:102E9E00734C6974650A312E302E32006F6E006FDE
:0C2EAE00666600626C696E6B003D0000FF
:00000001FF
